{
  "contractName": "Bank",
  "abi": [
    {
      "inputs": [
        {
          "internalType": "contract Blank",
          "name": "blank_",
          "type": "address"
        },
        {
          "internalType": "contract BabyBlank",
          "name": "babyBlank_",
          "type": "address"
        }
      ],
      "stateMutability": "nonpayable",
      "type": "constructor"
    },
    {
      "anonymous": false,
      "inputs": [
        {
          "indexed": false,
          "internalType": "address",
          "name": "staker",
          "type": "address"
        },
        {
          "indexed": false,
          "internalType": "uint256",
          "name": "value",
          "type": "uint256"
        }
      ],
      "name": "StakeToken",
      "type": "event"
    },
    {
      "inputs": [
        {
          "internalType": "address",
          "name": "",
          "type": "address"
        }
      ],
      "name": "hasStaked",
      "outputs": [
        {
          "internalType": "bool",
          "name": "",
          "type": "bool"
        }
      ],
      "stateMutability": "view",
      "type": "function",
      "constant": true
    },
    {
      "inputs": [
        {
          "internalType": "address",
          "name": "",
          "type": "address"
        }
      ],
      "name": "isStaking",
      "outputs": [
        {
          "internalType": "bool",
          "name": "",
          "type": "bool"
        }
      ],
      "stateMutability": "view",
      "type": "function",
      "constant": true
    },
    {
      "inputs": [],
      "name": "name",
      "outputs": [
        {
          "internalType": "string",
          "name": "",
          "type": "string"
        }
      ],
      "stateMutability": "view",
      "type": "function",
      "constant": true
    },
    {
      "inputs": [
        {
          "internalType": "uint256",
          "name": "",
          "type": "uint256"
        }
      ],
      "name": "stakers",
      "outputs": [
        {
          "internalType": "address",
          "name": "",
          "type": "address"
        }
      ],
      "stateMutability": "view",
      "type": "function",
      "constant": true
    },
    {
      "inputs": [
        {
          "internalType": "address",
          "name": "",
          "type": "address"
        }
      ],
      "name": "stakingBalance",
      "outputs": [
        {
          "internalType": "uint256",
          "name": "",
          "type": "uint256"
        }
      ],
      "stateMutability": "view",
      "type": "function",
      "constant": true
    },
    {
      "inputs": [],
      "name": "getOwner",
      "outputs": [
        {
          "internalType": "address",
          "name": "",
          "type": "address"
        }
      ],
      "stateMutability": "view",
      "type": "function",
      "constant": true
    },
    {
      "inputs": [],
      "name": "getContractAddress",
      "outputs": [
        {
          "internalType": "address",
          "name": "",
          "type": "address"
        }
      ],
      "stateMutability": "view",
      "type": "function",
      "constant": true
    },
    {
      "inputs": [],
      "name": "getTotalValueLocked",
      "outputs": [
        {
          "internalType": "uint256",
          "name": "",
          "type": "uint256"
        }
      ],
      "stateMutability": "view",
      "type": "function",
      "constant": true
    },
    {
      "inputs": [],
      "name": "getBalance",
      "outputs": [
        {
          "internalType": "uint256",
          "name": "",
          "type": "uint256"
        }
      ],
      "stateMutability": "view",
      "type": "function",
      "constant": true
    },
    {
      "inputs": [],
      "name": "getRewardRate",
      "outputs": [
        {
          "internalType": "uint256",
          "name": "",
          "type": "uint256"
        }
      ],
      "stateMutability": "view",
      "type": "function",
      "constant": true
    },
    {
      "inputs": [],
      "name": "transferToken",
      "outputs": [],
      "stateMutability": "nonpayable",
      "type": "function"
    },
    {
      "inputs": [],
      "name": "getBlankAddress",
      "outputs": [
        {
          "internalType": "address",
          "name": "",
          "type": "address"
        }
      ],
      "stateMutability": "view",
      "type": "function",
      "constant": true
    },
    {
      "inputs": [],
      "name": "getBabyAddress",
      "outputs": [
        {
          "internalType": "address",
          "name": "",
          "type": "address"
        }
      ],
      "stateMutability": "view",
      "type": "function",
      "constant": true
    },
    {
      "inputs": [
        {
          "internalType": "uint256",
          "name": "_amount",
          "type": "uint256"
        }
      ],
      "name": "depositToken",
      "outputs": [],
      "stateMutability": "nonpayable",
      "type": "function"
    },
    {
      "inputs": [],
      "name": "rewardToken",
      "outputs": [],
      "stateMutability": "nonpayable",
      "type": "function"
    },
    {
      "inputs": [
        {
          "internalType": "uint256",
          "name": "balance",
          "type": "uint256"
        }
      ],
      "name": "claimReward",
      "outputs": [],
      "stateMutability": "nonpayable",
      "type": "function"
    },
    {
      "inputs": [
        {
          "internalType": "uint256",
          "name": "balanceReward",
          "type": "uint256"
        }
      ],
      "name": "unstakeToken",
      "outputs": [],
      "stateMutability": "nonpayable",
      "type": "function"
    }
  ],
  "bytecode": "0x60c0604052601860809081527f426c616e6b20446563656e7472616c697a65642042616e6b000000000000000060a0526000906200003e908262000179565b50600580553480156200005057600080fd5b5060405162000cf738038062000cf783398101604081905262000073916200025e565b600280546001600160a01b038085166001600160a01b0319928316179092556003805492841692909116919091179055620000ab3390565b600180546001600160a01b0319166001600160a01b0392909216919091179055506200029d9050565b634e487b7160e01b600052604160045260246000fd5b600181811c90821680620000ff57607f821691505b6020821081036200012057634e487b7160e01b600052602260045260246000fd5b50919050565b601f8211156200017457600081815260208120601f850160051c810160208610156200014f5750805b601f850160051c820191505b8181101562000170578281556001016200015b565b5050505b505050565b81516001600160401b03811115620001955762000195620000d4565b620001ad81620001a68454620000ea565b8462000126565b602080601f831160018114620001e55760008415620001cc5750858301515b600019600386901b1c1916600185901b17855562000170565b600085815260208120601f198616915b828110156200021657888601518255948401946001909101908401620001f5565b5085821015620002355787850151600019600388901b60f8161c191681555b5050505050600190811b01905550565b6001600160a01b03811681146200025b57600080fd5b50565b600080604083850312156200027257600080fd5b82516200027f8162000245565b6020840151909250620002928162000245565b809150509250929050565b610a4a80620002ad6000396000f3fe608060405234801561001057600080fd5b506004361061010b5760003560e01c8063799a5359116100a2578063b26025aa11610071578063b26025aa14610227578063c93c8f341461022f578063dab7ad4f14610252578063f7c618c114610263578063fd5e6dd11461026b57600080fd5b8063799a5359146101f35780637e1a3786146101fb578063893d20e814610203578063ae169a501461021457600080fd5b806332a2c5d0116100de57806332a2c5d01461018757806345bc78ab1461018d5780636215be77146101ad5780636f49712b146101c057600080fd5b806306fdde031461011057806312065fe01461012e5780632cfb66881461014d5780632e015a6614610162575b600080fd5b61011861027e565b6040516101259190610877565b60405180910390f35b336000908152600760205260409020545b604051908152602001610125565b61016061015b3660046108c5565b61030c565b005b6002546001600160a01b03165b6040516001600160a01b039091168152602001610125565b3061016f565b61013f61019b3660046108de565b60076020526000908152604090205481565b6101606101bb3660046108c5565b6103f2565b6101e36101ce3660046108de565b60096020526000908152604090205460ff1681565b6040519015158152602001610125565b61016061058c565b60055461013f565b6001546001600160a01b031661016f565b6101606102223660046108c5565b61061a565b60045461013f565b6101e361023d3660046108de565b60086020526000908152604090205460ff1681565b6003546001600160a01b031661016f565b610160610732565b61016f6102793660046108c5565b61084d565b6000805461028b9061090e565b80601f01602080910402602001604051908101604052809291908181526020018280546102b79061090e565b80156103045780601f106102d957610100808354040283529160200191610304565b820191906000526020600020905b8154815290600101906020018083116102e757829003601f168201915b505050505081565b336000908152600760205260409020548061032657600080fd5b8060046000828254610338919061095e565b90915550506003546001600160a01b031663a9059cbb336040516001600160e01b031960e084901b1681526001600160a01b039091166004820152602481018490526044016020604051808303816000875af115801561039c573d6000803e3d6000fd5b505050506040513d601f19601f820116820180604052508101906103c09190610977565b5033600090815260076020908152604080832083905560099091529020805460ff191690556103ee8261061a565b5050565b600081116103ff57600080fd5b6003546001600160a01b03166323b872dd336040516001600160e01b031960e084901b1681526001600160a01b03909116600482015260006024820152604481018490526064016020604051808303816000875af1158015610465573d6000803e3d6000fd5b505050506040513d601f19601f820116820180604052508101906104899190610977565b5033600090815260076020526040812080548392906104a9908490610999565b9250508190555080600460008282546104c29190610999565b90915550503360009081526008602052604090205460ff1661052157600680546001810182556000919091527ff652222313e28459528d920b65115c16c04f3efc82aaedc97be59f3f377c0d3f0180546001600160a01b031916331790555b3360008181526009602090815260408083208054600160ff19918216811790925560088452938290208054909416179092558151928352820183905280517f95d0aa551474aeee124f0d92b9adb26d65b9472f637c408329a728e40ad0e8ef9281900390910190a150565b6003546001600160a01b031663a9059cbb336040516001600160e01b031960e084901b1681526001600160a01b0390911660048201526802b5e3af16b188000060248201526044016020604051808303816000875af11580156105f3573d6000803e3d6000fd5b505050506040513d601f19601f820116820180604052508101906106179190610977565b50565b60005b6006548110156103ee57336001600160a01b031660068281548110610644576106446109ac565b6000918252602090912001546001600160a01b0316036107205781156106ec576002546001600160a01b031663a9059cbb336040516001600160e01b031960e084901b1681526001600160a01b039091166004820152602481018590526044016020604051808303816000875af11580156106c3573d6000803e3d6000fd5b505050506040513d601f19601f820116820180604052508101906106e79190610977565b505050565b60405162461bcd60e51b815260206004820152600560248201526477726f6e6760d81b604482015260640160405180910390fd5b8061072a816109c2565b91505061061d565b6001546001600160a01b0316336001600160a01b03161461075257600080fd5b60005b60065481101561061757600060068281548110610774576107746109ac565b60009182526020808320909101546005546001600160a01b03909116808452600790925260408320549193506064916107ad91906109db565b6107b791906109f2565b905080156108385760025460405163a9059cbb60e01b81526001600160a01b038481166004830152602482018490529091169063a9059cbb906044016020604051808303816000875af1158015610812573d6000803e3d6000fd5b505050506040513d601f19601f820116820180604052508101906108369190610977565b505b50508080610845906109c2565b915050610755565b6006818154811061085d57600080fd5b6000918252602090912001546001600160a01b0316905081565b600060208083528351808285015260005b818110156108a457858101830151858201604001528201610888565b506000604082860101526040601f19601f8301168501019250505092915050565b6000602082840312156108d757600080fd5b5035919050565b6000602082840312156108f057600080fd5b81356001600160a01b038116811461090757600080fd5b9392505050565b600181811c9082168061092257607f821691505b60208210810361094257634e487b7160e01b600052602260045260246000fd5b50919050565b634e487b7160e01b600052601160045260246000fd5b8181038181111561097157610971610948565b92915050565b60006020828403121561098957600080fd5b8151801515811461090757600080fd5b8082018082111561097157610971610948565b634e487b7160e01b600052603260045260246000fd5b6000600182016109d4576109d4610948565b5060010190565b808202811582820484141761097157610971610948565b600082610a0f57634e487b7160e01b600052601260045260246000fd5b50049056fea264697066735822122039ba09b32468dcbbd1878449077a138d2fe460acbf9d2406d98a42721026e80864736f6c63430008110033",
  "immutableReferences": {},
  "source": "// SPDX-License-Identifier: MIT\r\npragma solidity >=0.4.22 <0.9.0;\r\n\r\nimport \"./Blank.sol\";\r\nimport \"./BabyBlank.sol\";\r\nimport \"@openzeppelin/contracts/utils/Context.sol\";\r\n\r\ncontract Bank is Context {\r\n    string public name = \"Blank Decentralized Bank\";\r\n    address private owner;\r\n    Blank private _Blank;\r\n    BabyBlank private _BabyBlank;\r\n\r\n    uint256 private totalValueLocked;\r\n    uint256 private rewardRate = 5;\r\n\r\n    constructor(Blank blank_, BabyBlank babyBlank_) {\r\n        _Blank = blank_;\r\n        _BabyBlank = babyBlank_;\r\n        owner = (_msgSender());\r\n    }\r\n\r\n    address[] public stakers;\r\n    mapping(address => uint256) public stakingBalance;\r\n    mapping(address => bool) public hasStaked;\r\n    mapping(address => bool) public isStaking;\r\n\r\n    event StakeToken(address staker, uint256 value);\r\n\r\n    function getOwner() public view returns (address) {\r\n        return owner;\r\n    }\r\n\r\n    function getContractAddress() public view returns (address) {\r\n        return address(this);\r\n    }\r\n\r\n    function getTotalValueLocked() public view returns (uint256) {\r\n        return totalValueLocked;\r\n    }\r\n\r\n    function getBalance() public view returns (uint256) {\r\n        return stakingBalance[_msgSender()];\r\n    }\r\n\r\n    function getRewardRate() public view returns (uint256) {\r\n        return rewardRate;\r\n    }\r\n\r\n    function transferToken() public {\r\n        _BabyBlank.transfer(_msgSender(), 50 * (10**18));\r\n    }\r\n\r\n    function getBlankAddress() public view returns (address) {\r\n        return address(_Blank);\r\n    }\r\n\r\n    function getBabyAddress() public view returns (address) {\r\n        return address(_BabyBlank);\r\n    }\r\n\r\n    function depositToken(uint256 _amount) public {\r\n        require(_amount > 0);\r\n        _BabyBlank.transferFrom(_msgSender(), address(0), _amount);\r\n        stakingBalance[_msgSender()] += _amount;\r\n        totalValueLocked += _amount;\r\n        if (!hasStaked[_msgSender()]) {\r\n            stakers.push(_msgSender());\r\n        }\r\n\r\n        isStaking[_msgSender()] = true;\r\n        hasStaked[_msgSender()] = true;\r\n\r\n        emit StakeToken(_msgSender(), _amount);\r\n    }\r\n\r\n    function rewardToken() public {\r\n        require(_msgSender() == owner);\r\n\r\n        for (uint256 index = 0; index < stakers.length; index++) {\r\n            address recipt = stakers[index];\r\n            uint256 balance = (stakingBalance[recipt] * rewardRate) / 10**2;\r\n            if (balance > 0) {\r\n                _Blank.transfer(recipt, balance);\r\n            }\r\n        }\r\n    }\r\n\r\n    function claimReward(uint256 balance) public {\r\n        for (uint256 index = 0; index < stakers.length; index++) {\r\n            if (stakers[index] == _msgSender()) {\r\n                if (balance > 0) {\r\n                    _Blank.transfer(_msgSender(), balance);\r\n                } else {\r\n                    revert(\"wrong\");\r\n                }\r\n                break;\r\n            }\r\n        }\r\n    }\r\n\r\n    function unstakeToken(uint256 balanceReward) public{\r\n        uint256 balance = stakingBalance[_msgSender()];\r\n        require(balance > 0);\r\n        totalValueLocked -= balance;\r\n        _BabyBlank.transfer(_msgSender(), balance);\r\n        stakingBalance[_msgSender()] = 0;\r\n        isStaking[_msgSender()] = false;\r\n        claimReward(balanceReward);\r\n    }\r\n}\r\n",
  "sourcePath": "C:\\Users\\sinab\\OneDrive\\Desktop\\Code\\Bank\\contracts\\Bank.sol",
  "compiler": {
    "name": "solc",
    "version": "0.8.17+commit.8df45f5f.Emscripten.clang"
  },
  "schemaVersion": "3.4.11",
  "updatedAt": "2023-01-02T13:35:13.839Z",
  "networkType": "ethereum",
  "devdoc": {
    "kind": "dev",
    "methods": {},
    "version": 1
  },
  "userdoc": {
    "kind": "user",
    "methods": {},
    "version": 1
  }
}